:020000040000FA
:060000009EEF00F012006B
:020006000000F8
:08000800060EF66E000EF76E05
:10001000000EF86E00010900F550C56F0900F5509B
:10002000C66F03E1C56701D03DD00900F550C06F30
:100030000900F550C16F0900F550C26F09000900B1
:10004000F550E96E0900F550EA6E09000900090053
:10005000F550C36F0900F550C46F09000900F6CFD1
:10006000C7F0F7CFC8F0F8CFC9F0C0C0F6FFC1C0E5
:10007000F7FFC2C0F8FF0001C35302E1C45307E019
:100080000900F550EE6EC307F8E2C407F9D7C7C000
:10009000F6FFC8C0F7FFC9C0F8FF0001C507000E92
:0600A000C65BBFD7120091
:0A00A600720ED36EC1680F0E926E49
:1000B000030E936E806A816A80B614D080A004D04B
:1000C00081848196819809D080A204D08194818610
:1000D000819803D0819481968188E66AACEC00F027
:1000E000E552EAD780A624D0815004E1819481961C
:1000F000819819D0815002E1000E01D0010E010853
:1001000004E18184819681980ED0815002E1000E35
:1001100001D0010E020804E181948186819803D008
:10012000819481968188E66AACEC00F0E552DAD7DA
:0C013000E66AACEC00F0E552BFD712000C
:04013C0010EE80F051
:1001400020EE80F0F86A019C04EC00F0BEEC00F0B8
:0801500053EC00F0FBD7120094
:08015800FF0EE350E84E120017
:0E016000000000D000D000D0E82EFAD7120028
:02016E0000EEA1
:0C01700000F00F0EEE6AEA62FDD71200EC
:02017C0012006F
:020000040030CA
:0100010009F5
:010002000DF0
:010003001EDE
:01000500807A
:010006008079
:0100080003F4
:01000900C036
:01000A0003F2
:01000B00E014
:01000C0003F0
:01000D0040B2
:00000001FF
