:1000000012C0189518951895189518951895189563
:100010001895189518951895189518951895189578
:100020001895189518958FE58DBFC8E3E0E24E2E20
:1000300084E08EBFD4E0F4E05F2EA89584B7082E4C
:10004000877F84BF88E1992781BD91BDEEEFF3E002
:10005000A0E6B0E088278D933197E9F787E189B969
:1000600080E080BD88E18AB9DED0662485E886B963
:1000700080E487B9379A8FEF87BB80E084BB80E04C
:100080008093740081E08093750081E090E0A0E7A8
:10009000B0E08D939C93EEE1F4E097D0A8E0B4E05B
:1000A000E0E7F0E06BD189D096D0ACD0E0E3F4E0AB
:1000B000A1D0A6D0E1E0F0E0ADD0EEE3F4E09AD03C
:1000C000E1E0F0E0A7D081E080936B0000916B004D
:1000D000003110F009F00CC08CE1EDD084E690E026
:1000E00016D1ABE6B0E08C918F5F8C9308F4EECF25
:1000F00089D088E1E0D0A0E6B0E0E0E5F4E016D1F8
:1001000000E01BE420E030E0ACE6B0E00D931D938E
:100110002D933C93C19A8CE291E0F9D0C19807B13C
:10012000007F8091740090E0890F082707B903D100
:10013000A2E7B0E08D939C936AD064D0E6E5F4E04A
:1001400059D0A8E0B4E0E4E7F0E01FD14BD0EAE5F5
:10015000F4E050D0A8E0B4E0E2E7F0E007D142D00C
:100160004FD007B1007F8091750090E0890F08277C
:1001700007B9E1D0A2E7B0E08D939C93E6E5F4E007
:1001800039D0A8E0B4E0E5E7F0E0FFD02BD0EAE515
:10019000F4E030D0A8E0B4E0E2E7F0E0E7D022D02D
:1001A00084EF91E0B4D0EEE5F4E00FD014D08CE20F
:1001B00091E0ADD0AFCFF894FFCFA8E0B4E08D913F
:1001C000882311F00BD0FBCF0895BED0802D11F005
:1001D00005D0FBCF08958DE001D08AE05D9BFECF76
:1001E0008CB90895A8E0B4E08D91882311F05DD01A
:1001F000FBCF0895A9D0802D11F057D0FBCF0895E3
:1002000080EC59C081E057D00BD080E854C080E822
:1002100052D0089588EE93E07AD03197D9F70895B7
:1002200083E0992774C08AEF90E071D08F9A8E9AFC
:100230008D9A8C9A8B9A8A9A929885E090E067D0F2
:10024000939897989698959A949A939AEF93FF9388
:10025000E8E5F0E050D0FF91EF91939855D0939A54
:10026000EF93FF93E8E5F0E046D0FF91EF9193988C
:100270004BD0939AEF93FF93E8E5F0E03CD0FF91E9
:10028000EF91939841D09498939AEF93FF93E8E578
:10029000F0E031D0FF91EF91939836D088E20BD007
:1002A0008EE009D086E007D00895929A829505D015
:1002B00004D02AD008959298F9CF859510F4949A95
:1002C00001C09498859510F4959A01C095988595EC
:1002D00010F4969A01C09698859510F4979A01C0EB
:1002E0009798939AEF93FF93E8E5F0E004D0FF919D
:1002F000EF91939808953197F1F70895689462F813
:100300000895E89462F8089581E090E000C0EF93CA
:10031000FF93EE27E82BE92B31F0EAE9F3E0319780
:10032000F1F70197D1F7FF91EF9108950DD00D925C
:100330000020E1F70895369A3699FECF369A36991D
:10034000FECF84B195B10895C895319600200895E7
:10035000000F111F221F331F08950095109520953F
:1003600030950F5F1F4F2F4F3F4F08950191108120
:100370000EC001911191219130810BC0019110812A
:1003800017FF05C03FEF2FEF04C000811127222780
:10039000332737FF03C0E1DF8DE28D93CF93DF93E7
:1003A000CF92DF92EF92AA24BB24CC24DD24EE244A
:1003B00040E2CAE0DD2755E093E38881890F87FD9D
:1003C0009F7083FD907F891B89935A95A9F7C0DFA1
:1003D000AA1CBB1CCC1CDD1CEE1C4A9551F7E894F2
:1003E000EFE0FF2782910ED0EB30E0F71EF068942B
:1003F0008A2D0CD088278D93EF90DF90CF90DF91DE
:10040000CF910895982F829501D0892F8F70805DAC
:1004100026F0803309F4089568948D9308957072DE
:10042000696E74207661726961626C652063200078
:1004300048656C6C6F20776F726C642E00004154BD
:100440004D65676138204144432044656D6F00006D
:1004500048656C6C6F00436820003A200000546FC0
:0E04600067676C6520506F7274422E31000089
:00000001FF
